:020000040800F2
:10000000084E002071020008B31100088710000894
:10001000B1110008A1030008251500080000000028
:10002000000000000000000000000000B101000816
:10003000A3030008000000000D02000841120008A0
:100040008B0200088B0200088B0200088B0200085C
:100050008B0200088B0200088B0200088B0200084C
:100060008B0200088B0200088B0200088B0200083C
:100070008B0200088B0200088B0200088B0200082C
:100080008B0200088B0200088B02000800000000B1
:100090000000000000000000000000008B020008CB
:1000A0008B0200088B0200088B0200088B020008FC
:1000B0008B0200088B0200088B0200088B020008EC
:1000C0008B0200088B0200088B0200088B020008DC
:1000D0008B0200088B0200088B0200080000000061
:1000E0008B0200088B0200088B0200080000000051
:1000F0000000000000000000000000008B0200086B
:10010000000000008B020008FD1200088B020008AE
:1001100000000000000000000000000000000000DF
:100120008B0200088B0200088B0200088B0200087B
:100130008B0200080000000000000000000000002A
:100140000000000000000000000000008B0200081A
:100150008B0200088B0200088B0200088B0200084B
:100160008B0200088B020008000000000000000065
:10017000000000000000000000000000000000007F
:10018000000000008B0200080000000000000000DA
:100190008B0200088B020008DFF810D000F0EEF8A8
:1001A00000480047B1150008AFF30080084E00205A
:1001B0002C4B19680868B0E8F04F80F30988BFF34A
:1001C0006F8F4FF0000080F311887047000000002F
:1001D00008480068006880F308884FF0000080F34A
:1001E000148862B661B6BFF34F8FBFF36F8F00DF25
:1001F00000BF00BF08ED00E0DFF80C00016841F42B
:1002000070010160704700BF88ED00E0EFF30980E6
:10021000BFF36F8F134B1A681EF0100F08BF20ED4D
:10022000108A20E9F04F106009B44FF0500080F3BD
:100230001188BFF34F8FBFF36F8F02F05DF94FF05E
:10024000000080F3118809BC19680868B0E8F04F15
:100250001EF0100F08BFB0EC108A80F30988BFF3BE
:100260006F8F704720000020EFF30580704700007B
:100270000648804706480047FEE7FEE7FEE7FEE740
:10028000FEE7FEE7FEE7FEE7FEE7FEE7ED12000809
:10029000990100082DE9F05F0546002092469B4633
:1002A00088460646814640241BE02846414647468C
:1002B000224600F053F853465A46C01A914110D3D3
:1002C00011461846224600F03AF82D1A67EB01084D
:1002D0004F4622460120002100F031F817EB0009BB
:1002E0004E41201EA4F10104DFDC484631462A4677
:1002F0004346BDE8F09F40EA01039B0703D009E0B5
:1003000008C9121F08C0042AFAD203E011F8013B01
:1003100000F8013B521EF9D27047D2B201E000F85A
:10032000012B491EFBD270470022F6E710B5134699
:100330000A4604461946FFF7F0FF204610BD202A62
:1003400004DB203A00FA02F1002070479140C2F12C
:10035000200320FA03F3194390407047202A04DB5E
:10036000203A21FA02F00021704721FA02F3D0402E
:10037000C2F120029140084319467047064C074DD0
:1003800006E0E06840F0010394E807009847103465
:10039000AC42F6D3FFF704FFFC3200081C33000820
:1003A000FEE7704772B6FEE72DE9F84FDFF8B8A117
:1003B0000022012403254FF00F090AF1040BAAF1D2
:1003C000040E00BF0B6804FA02F63340B34273D147
:1003D0000F7907F00307012F01D0022F16D187688C
:1003E0004FEA420805FA08FC27EA0C07D1F80CC0CE
:1003F0000CFA08FC4CEA070CC0F808C04768B74381
:100400000E79C6F3001696403E4346600E79F643D9
:10041000B6070DD0C768560005FA06FC27EA0C0798
:10042000D1F808C00CFA06FC4CEA070CC0F80CC066
:100430000E7906F00306022E10D1D60800EB8608CE
:10044000D8F8206057074FEAD76C09FA0CF7BE437B
:100450000F6907FA0CF73743C8F8207006684FEAAF
:10046000420C05FA0CF7BE430F7907F0030707FAB1
:100470000CF7374307604E6816F4403F6DD03B4E93
:10048000376847F480473760366822F0030706F480
:1004900080460096364E07EB060CDCF80868970796
:1004A0003F0F09FA07F826EA0806DFF8C88040453A
:1004B00003D14FF000081EE04FE0DFF8BC8040455C
:1004C00002D14FF0010816E0DFF8B080404502D1BC
:1004D0004FF002080FE0DFF8A880404502D14FF04E
:1004E000030808E0DFF89C80404502D14FF0040883
:1004F00001E04FF0070808FA07F848EA0608CCF8C8
:100500000888DAF800605746D1F804C09E435FEAD5
:10051000CC2C00D51E433E60DBF800605F46D1F86E
:1005200004C09E435FEA8C2C00D51E433E60DEF87B
:1005300000607746D1F804C09E435FEA8C3C00D54A
:100540001E433E60084F083F3E68D1F804C09E43FA
:100550005FEACC3C00D51E433E60521C102AFFF4DB
:1005600031AFBDE8F88F0000083C0140443802403C
:100570000030014000000240000402400008024038
:10058000000C0240001002400AB18161704709046A
:10059000FBE7000001488068704700001000002061
:1005A0000248816802781144816070471000002081
:1005B0000B4810B5016841F400710160016841F415
:1005C00080610160016841F480710160032000F0E6
:1005D0009FF80F2000F006F800F050F8002010BD42
:1005E000003C024030B505461F4887B00024016832
:1005F00041F008010160006806A900F008000090C1
:1006000001A800F031F90498A8B100F04DF94000BC
:100610001649174AB0FBF1F11648491E026040F234
:10062000E732C0E90324C0E90114846100F046FB0D
:10063000040003D015E000F037F9E9E70D4800F0B9
:100640006BFB04000DD1322000F034F8102D07D2DE
:1006500000222946322000F03BF80748056000E000
:10066000012407B0204630BD4038024040420F0010
:10067000000C0040E8000020140000200C4882B06C
:10068000016841F480410160006800F480400090FE
:100690000748001F016841F0805101600068002296
:1006A00000F0805000900F21901E02B000F010B8B2
:1006B00044380240002809DB00F01F02012191406C
:1006C0004009800000F1E020C0F8001170470000F0
:1006D000F0B40E4B1B680C46C3F30223C3F10705AD
:1006E000042D00D90425191D072901D2002300E09B
:1006F000DB1E012606FA05F1491E214099409E4065
:10070000761E16403143F0BC00F016BF0CED00E041
:10071000064900F0070208684FF6FF03184040EA58
:100720000220034A10430860704700000CED00E00F
:100730000000FA052DE9F0470E46050065D0DFF808
:100740001481D8F80000F7B200F00700B04207D2D9
:1007500088F80070D8F8000000F00700B04254D1CB
:1007600028683D4C810712D5400703D5206840F426
:10077000E05020602878000703D5206840F46040EE
:1007800020602068A96820F0F000084320602878E5
:10079000C0072DD0304968680839012812D00228D6
:1007A00013D0032811D00968890700292DDA2168A0
:1007B00021F0030101432160FFF7ECFE814641F285
:1007C000883A0EE009688903EFE709688901ECE7D8
:1007D000FFF7E0FEA0EB0901514502D90320BDE877
:1007E000F0872068696800F00C00B0EB810FEFD152
:1007F000D8F80010404601F00701B14207D9077050
:10080000006800F00700B04201D00120E7E7287837
:10081000400705D52068E96820F4E05008432060CF
:100820002878000706D52068296920F4604040EA4E
:10083000C100206000F058F82168084AC1F3031194
:10084000515CC8400649086006480068FFF7CAFEC8
:100850000020C4E7003C024008380240B8320008DB
:100860001C000020140000200F2202600C4A1368B4
:1008700003F003034360136803F0F003836013681D
:1008800003F4E053C36012684FF4E05303EAD2026A
:1008900002610448006800F007000860704700002B
:1008A00008380240003C02400448054900680968D5
:1008B000044AC1F38221515CC84070471C000020EB
:1008C00008380240C8320008044805490068096831
:1008D000044AC1F34231515CC84070471C000020FB
:1008E00008380240C8320008154810B5006810F0FA
:1008F0000C02144813D01449042A0FD0082A0ED130
:100900000F4C241F2268236802F03F025B0207D5C8
:100910002068C0F38810A0FB010106E0084610BD66
:100920002168C1F38811A1FB00010023FFF7B2FC8D
:100930002168C1F30141491C4900B0FBF1F010BD31
:10094000083802400024F40040787D012DE9F84F7A
:1009500004006ED02078DFF84C93C007A9F104059D
:100960004AD009F104000168C1F38101012908D0CE
:100970000068C0F3810002280AD1D9F800004002C3
:1009800006D52868800337D560680028E1D033E0B9
:100990006068B0F5803F10D0B0F5A02F286810D067
:1009A00020F480302860286820F480202860606867
:1009B000A8B1FFF7EFFD06460DE0286840F480304F
:1009C000F4E740F480202860F7E700BFFFF7E2FD7E
:1009D000801B642873D828688003F7D50CE0FFF7E4
:1009E000D9FD064605E000BFFFF7D4FD801B642853
:1009F000F0D828688003F7D42078DFF8AC8280072D
:100A00004FF0000A3ED5A748001D016811F00C0FF9
:100A100008D00068C0F3810002280BD1D9F800008B
:100A2000400207D42868800716D5E068012800D165
:100A300012E033E1E068B8B10120C8F80000FFF728
:100A4000A9FD064605E000BFFFF7A4FD801B0228B4
:100A5000C0D828688007F7D52868216920F0F800F9
:100A600040EAC10028600DE0C8F800A0FFF792FD41
:100A7000064604E0FFF78EFD801B02281FD8286879
:100A80008007F7D42078000722D5864F8748616910
:100A9000703771B101210160FFF77CFD064604E06B
:100AA000FFF778FD801B022809D838688007F7D542
:100AB0000EE0C0F800A0FFF76DFD064605E082E0FD
:100AC000FFF768FD801B02287DD838688007F7D4BF
:100AD0002078400768D5DFF8CCB100270BF13C0B3C
:100AE000DBF80000C0000BD4DBF8001041F08051AF
:100AF000CBF80010DBF80000012700F080500090D8
:100B00006B4E3068C00510D4306840F4807030609F
:100B1000FFF740FD009005E0FFF73CFD0099401A0B
:100B2000022850D83068C005F6D55E4EA0686C36F5
:100B300001280FD00528306810D020F00100306067
:100B4000306820F004003060A068B8B1FFF722FDE3
:100B500000900FE0306840F00100F4E740F004003E
:100B60003060F7E7FFF716FD0099411A41F288302F
:100B7000814266D830688007F4D50EE0FFF70AFDA1
:100B8000009007E0FFF706FD0099411A41F2883016
:100B9000814256D830688007F4D42FB1DBF80010BA
:100BA00021F08051CBF80010A069C8B33D49091D60
:100BB0000968C1F3810102294AD00228504607D0B2
:100BC000C8F8600000E03CE0FFF7E4FC04463BE0CE
:100BD0004746C8F86000FFF7DDFC064605E000BFA9
:100BE000FFF7D8FC801B02282BD828688001F7D497
:100BF000D4E907010843A16A2E4A490802EB0141E2
:100C0000626A41EA8211084394F82C1040EA0161BB
:100C1000C9F8001001203866FFF7BCFC044606E066
:100C20003EE000BFFFF7B6FC001B022809D8286889
:100C30008001F7D534E000BFFFF7ACFC001B0228B1
:100C400002D90320BDE8F88F28688001F4D427E09A
:100C50000128F7D0D9F80000E26900F48001914240
:100C60001CD1226A00F03F01914217D147F6C071B2
:100C7000626A0140B1EB821F10D1A26A4FF0FF33CC
:100C800000F4403103EB5202B1EB024F06D194F86D
:100C90002C1000F07060B0EB016F01D00120D1E7A3
:100CA0000020CFE70438024000004742800E474250
:100CB000007000400000FFFF7047704710B504004F
:100CC00003D094F83D0010B107E0012010BD0020D2
:100CD00084F83C00204600F01EF8022084F83D0015
:100CE000211D206800F010FB012084F8460084F8E4
:100CF0003E0084F83F0084F8400084F8410084F806
:100D0000420084F8430084F8440084F8450084F8E5
:100D10003D00002010BD704790F83D10012901D022
:100D200001207047022180F83D100168CA6842F036
:100D30000102CA6000680E4988420ED0B0F1804FAF
:100D40000BD00C49884208D00B49884205D00B498A
:100D5000884202D00A49884204D1816801F0070123
:100D6000062903D0016841F00101016000207047AD
:100D7000000001400004004000080040000C00405A
:100D800000400140704770B50446006801694FF0AB
:100D90000005C943890715D4C168C943890711D41F
:100DA000E91E0161012020772068806980072046C4
:100DB00002D0FFF7E7FF04E000F098F8204600F0CB
:100DC00096F8257720680169C943490717D4C16897
:100DD000C943490713D46FF0040101610220207751
:100DE0002068806910F4407F204602D0FFF7CAFFD8
:100DF00004E000F07BF8204600F079F825772068C1
:100E00000169C943090716D4C168C943090712D447
:100E10006FF008010161042020772068C069800715
:100E2000204602D0FFF7AEFF04E000F05FF8204656
:100E300000F05DF8257720680169C943C90617D419
:100E4000C168C943C90613D46FF0100101610820BD
:100E500020772068C06910F4407F204602D0FFF759
:100E600091FF04E000F042F8204600F040F82577BA
:100E700020680169C943C90708D1C168C943C907C6
:100E800004D1891E0161204600F032F82068016912
:100E9000C943090609D4C168C943090605D46FF0DE
:100EA000800101612046FFF707FF20680169C943FF
:100EB000490609D4C168C943490605D46FF0400109
:100EC0000161204600F01EF820680169C9438906C7
:100ED0000BD4C168C943890607D46FF020010161B2
:100EE0002046BDE87040FFF7E8BE70BD7047704710
:100EF00000680349884201D1FFF752BB70470000E8
:100F0000000C0040704770B5040004D094F83D0018
:100F1000002510B106E0012070BD84F83C50204649
:100F200000F022F8242084F83D002068C16821F4F4
:100F30000051C160204600F033FA2068016921F4B5
:100F4000904101612068416921F02A0141612068D6
:100F5000C16841F40051C1602564202084F83D003F
:100F600084F83E00002070BD10B586B00446142100
:100F70006846FFF7D9F914492068884221D11348FF
:100F80000021026842F010020260006800F01000C8
:100F900005900E481438026842F0010202600068B1
:100FA00000F0010005904FF4C06000900220CDE9F0
:100FB0000101032003900720049069460448FFF7CD
:100FC000F3F906B010BD00000010014044380240A3
:100FD000000002402DE9F843044690F83D001F460A
:100FE00016460D4620284CD1C5B1BEB194F83C0040
:100FF000012846D0012084F83C004FF00008C4F8D6
:101000004080212084F83D00FFF7C4FAA684814681
:10101000E684A068B0F5805F03D004E00120BDE85D
:10102000F883206928B12E465FF0000584F83C80E3
:101030000EE00026FAE78021204600F037FAA0B93A
:10104000AEB116F8010B21684860E08C401EE084C8
:10105000E08C4B464FF0000200970028EBD14FF098
:101060004001204600F022FA30B10320D7E735F8DE
:10107000020BC0F30800E6E7202084F83D000020C2
:10108000CDE70220CBE7FEE710B50D4800F003FBEB
:101090000C4C0B4A0021E0606C3A0B4800F050FB0E
:1010A000074A2060483A0021084800F049FB044AFA
:1010B0006060243A0021064800F042FBA06010BDA9
:1010C000A832000800000020B5110008F511000842
:1010D0003912000870B586B014216846FFF724F96C
:1010E00021480024016841F004010160016801F019
:1010F00004010591016841F080010160016801F07F
:1011000080010591016841F001010160016801F071
:1011100001010591016841F0020101600068134E70
:1011200000F002004FF40055059000222946304699
:10113000FFF72AFA01200095CDE9010469463046FF
:101140000394FFF731F91025CDE9005469460848AA
:101150000294FFF729F9CDE9005469460548029445
:10116000FFF722F906B070BD303802400008024097
:1011700000000240000402400C4810B50A4901601A
:101180004FF4E1314160002181600C22C160C0E96F
:1011900004128161C161FFF7B6FE002803D0BDE8EB
:1011A0001040FFF7FFB810BD00100140A400002060
:1011B000FEE7FEE7094C4FF0FF354FF4FA7629467B
:1011C000E06800F03FFA28B905A000F0ADF9E0684A
:1011D00000F095FA304600F0FAF9F0E70000002040
:1011E00049206C6F7665204672656552544F5321D5
:1011F0000D0A0000094C4FF0FF354FF47A7629466E
:10120000E06800F01FFA28B905A000F08DF9E06849
:1012100000F075FA304600F0DAF9F0E7000000203F
:101220004672656552544F53206973206772656139
:1012300074210D0A00000000642000F0C8F9FBE7EB
:1012400010B54FF0E020006901F006FE012803D040
:10125000BDE8104001F0FCB910BD000030B593B0FE
:1012600030216846FFF760F814210CA8FFF75CF8FE
:101270001C480024016841F080510160006800F0C2
:10128000805011901848016841F4404101600068A5
:10129000022500F44040119001200390102004909A
:1012A000009506950820CDE907404820CDE90905BD
:1012B00004200B906846FFF749FB08B172B6FEE7C1
:1012C0000F20CDE90C054FF48050CDE90E400221EE
:1012D0000CA81094FFF72EFA002801D072B6FEE792
:1012E00013B030BD40380240007000400248016831
:1012F00041F470010160704788ED00E00148FFF79C
:1013000042BD0000E8000020F0B502681D4B1E4CF5
:101310009F031E4D1E4E984207D0B84205D0A042F2
:1013200003D0A84201D0B04204D122F0700C4A6828
:1013300042EA0C02984210D0B8420ED0A0420CD023
:10134000A8420AD0B04208D0124CA04205D0124C9C
:10135000A04202D0114CA04203D122F44074CA68CA
:1013600022434C6922F08002224302608A68C262F2
:101370000A688262984201D10969016301214161D1
:10138000F0BD0000000001400004004000080040E3
:10139000000C004000400140004401400048014072
:1013A00070B5044600680169E26821F440511143B8
:1013B00001612169A068E26908436169114308433A
:1013C0002168CA6849F20C639A430243CA602068E4
:1013D0004169A26921F4407111434161314920689A
:1013E000884202D03049884202D1FFF76DFA01E00D
:1013F000FFF75AFAE2690023192164253226B2F573
:10140000004F626828D0A0FB0101930F9200FEF705
:1014100041FF0146B0FBF5F06FF01802504301EBBD
:10142000800006EB0010B0FBF5F000F0F002B1FB1D
:10143000F5F002EB0012B1FBF5F06FF01803584322
:1014400001EB800006EB0010B0FBF5F000F00F00A0
:1014500021681044886070BDA0FB010192185B41B7
:10146000FEF718FF0146B0FBF5F00201B1FBF5F005
:101470006FF01803584301EB800006EBC000B0FB8F
:10148000F5F000F0F80002EB4002B1FBF5F0584334
:1014900001EB800006EBC000B0FBF5F000F00700A8
:1014A000D6E7000000100140001401402DE9F04192
:1014B000984617460E460446069D27E0681C25D030
:1014C0002DB1FFF767F8A0EB0800A8421ED92068ED
:1014D0000C3050E8001F21F4D07140E80012002ABF
:1014E000F5D12068143050E8001F21F0010140E8D8
:1014F0000012002AF5D1202084F83D0084F83E0037
:10150000002084F83C000320BDE8F08120680068DA
:1015100036EA000004D00020B842CFD00020F3E724
:101520000120F9E7FEE70000014A024900F023B874
:1015300099150008A00000200907090E002804DB07
:1015400000F1E02080F80014704700F00F0000F177
:10155000E02080F8141D704702E008C8121F08C17F
:10156000002AFAD170477047002001E001C1121F24
:10157000002AFBD170472DE9F04116460F4604467C
:10158000002503E03946B047641C6D1C2078002814
:10159000F8D12846BDE8F08113B54FF0FF330122A2
:1015A00069460248FFF716FD00981CBDA400002004
:1015B000FEF7FEFFFFF752FEFFF78CFDFFF7DCFDA5
:1015C00000F012F8FFF760FD00F020F8FEE710B51C
:1015D000EFF3058111B16FF0050403E0002408B1B9
:1015E00000F08EFE204610BDEFF3058010B16FF0C5
:1015F000050070470448016811B14FF0FF30704793
:1016000001210160002070477000002010B5EFF349
:10161000058010B16FF0050010BD08480168012970
:1016200002D04FF0FF3010BD054A002182F8141D92
:101630000221016000F014FF002010BD70000020A6
:101640000BE000E02DE9F0410D46014621F00100DC
:1016500001F001014FF00004EFF305820AB1A41F6D
:1016600016E048B100296FF001066FF00207294625
:1016700008D001F039FB07E06FF0030408E035B152
:10168000344605E001F074FA0128F8D100E03C4648
:101690002046BDE8F08170B505464FF00004EFF339
:1016A000058050BB0DB1686800E00020C10701D083
:1016B000012600E0002600071FD46DB1D5E9021015
:1016C00021B1502819D31EB1042002E020B114E04A
:1016D000012000F0DEFF05E00EB1042000E0012053
:1016E00000F0CCFF040008D00DB1296800E0002113
:1016F00000F0D0FD0EB144F00104204670BD70B57D
:10170000014621F0010001F001014FF00004EFF368
:1017100005820AB1A41F11E028B16FF0020529B1BA
:1017200001F06BF907E06FF0030407E000231A46AD
:10173000194601F053F8012800D02C46204670BD10
:101740002DE9FF414FEA01034FF00005EFF305815A
:10175000039549BB40B38027182100244AB316687B
:1017600006B1344696691EB13146761E382E02D235
:101770001679F60703D0002004B0BDE8F081566961
:1017800006B1B708D2F808C0BCF1000F0DD0D5687B
:101790005C2D18D312693AB136B18DE806103A467D
:1017A000214601F028FB03900DE0D6685EB912696E
:1017B0004AB903AACDE90012BAB2214601F0EEFA05
:1017C000012800D003950398D6E700002DE9F041E9
:1017D000134C0F460546E6682068001D00F05CFCCF
:1017E000681C07D137B12168BDE8F0410D48091DDB
:1017F00000F0A2BC20683544B5424560216805D29E
:10180000A06BBDE8F041091D00F07EBC606B091DB6
:1018100000F07AFCA06A854200D2A562BDE8F081A2
:1018200020000020200600202DE9F041054600F0B0
:101830008FFC2D4CA068401CA06020682B4F10B17D
:10184000606930B32BE02560A068012827D100260D
:1018500006EB860007EB800000F048FC761C382E73
:10186000F6D3234800F042FC2148143000F03EFC3F
:101870001F48283000F03AFC1D483C3000F036FC90
:101880001B48503000F032FC194860631430A063EC
:1018900005E02068E96AC06A884200D82560606A6D
:1018A000401C60626864E86A2169884200D920614E
:1018B00000EB800007EB8000291D00F03DFC00F0EC
:1018C00067FC606900280CD02068E96AC06A884219
:1018D00007D208494FF080500860BFF34F8FBFF325
:1018E0006F8FBDE8F0810000200000207001002013
:1018F000D005002004ED00E038B500F029FC104CC4
:101900002068C8B90F4800F0F1FB0E48143000F011
:10191000EDFB0C48E060143020610A4B0020F03BE6
:10192000009003F1500210210A2000F0E0FE206038
:1019300010B105A100F0AEFCBDE8384000F028BCB5
:101940005C00002024070020546D7251000000004C
:1019500030B4026C0B46002A0BD0C1681144C16040
:101960008468A14201D30168C16030BC1846FEF70B
:10197000C2BC30BC70472DE9F041856B1746044668
:101980000026026C82B1C7B1E068FEF7B4FCE168E2
:10199000206C091AE1602268914202D2A168081AFB
:1019A000E060022F16D017E02068A8B9A06801F007
:1019B000CBFA06460020A0600EE06068FEF79BFCB4
:1019C000216C606808446060A168884204D3206884
:1019D000606001E005B16D1E6D1CA5633046BDE879
:1019E000F08110B5044690F8590058B101280CD088
:1019F00002280FD0502080F31188BFF34F8FBFF320
:101A00006F8FFEE7206B00F0D7FB2046BDE810404B
:101A100000F0D2BB10BD000010484FF470514207D7
:101A200006D0C01D0D4920F00700411AC1F57051C4
:101A30000B4A00230144C2E900030839183A21F097
:101A4000070111604B600B600B1AC0E90013936033
:101A50004FF000405360506170470000040E0020BA
:101A60008C000020144E154CA6F29C474FF0805875
:101A7000DFF84C9012E000BF00F06AFBF068C56828
:101A8000281D00F009FBA068401EA0606068401E91
:101A9000606000F07DFB2846FFF7A3FF6068002828
:101AA000EAD138680128F9D9C9F80080BFF34F8F0F
:101AB000BFF36F8FF2E700000C060020200000202B
:101AC00004ED00E0002807D00021816001600B4692
:101AD0000A46C16000F082BE7047000070B51D4626
:101AE000049C51B1C4F80020C4E90F010121204633
:101AF00000F030FE84F84C5070BD2460F4E7000024
:101B00002DE9F05F8846DDE90B9415468346910088
:101B10009A460A9EA522206BFEF7FFFB6FF0030199
:101B2000206B01EB8501084420F00707780707D0F8
:101B3000502080F31188BFF34F8FBFF36F8FFEE704
:101B40000025B8F1000F0FD05FF00000221818F840
:101B5000001082F8341018F8001011B1401C102841
:101B6000F4D384F8435001E084F83450382E00D385
:101B70003726E662C4E91365201D00F0C2FA04F1BD
:101B8000180000F0BEFA2461C6F138006462A0615A
:101B9000656584F8585052465946384600F066FA52
:101BA0002060B9F1000F01D0C9F80040BDE8F09FF6
:101BB00030B5114900E011460A688242FBD34B68F8
:101BC0005C18844203D14068184448600846436862
:101BD0001C18944209D1084C183C2468A24209D030
:101BE00052681A4442600A6812680260814200D05A
:101BF000086030BD0460F9E78C00002070B5002457
:101C000041600B4D0061914206D8D11A8269914220
:101C100006D2011D286907E09A4203D2994201D3F6
:101C2000012403E0011DE86800F06EFA204670BD53
:101C30005C00002010B5044600F08AFAA06B28B1C1
:101C40005FF0000400F0A4FA204610BD0124F9E77B
:101C500030B589B03C4D6EE00498002806DADDE925
:101C60000601059A90470498002864DB069C606989
:101C700010B1201D00F010FA03A800F0D7F80246BA
:101C800004980A2857D2DFE800F00505052D334AED
:101C900005052D3394F8280040F0010084F8280051
:101CA0000599A069059B01442046FFF7A7FF68B38B
:101CB000216A2046884794F8280040073BD5002039
:101CC00000900598A169002342181946204601F0AA
:101CD00081FAD8B9502080F31188BFF34F8FBFF33A
:101CE0006F8FFEE714F8280F20F00100207022E02B
:101CF00094F8280040F0010084F828000598A061BD
:101D000028B1811813462046FFF778FF13E05020D2
:101D100080F31188BFF34F8FBFF36F8FFEE794F806
:101D20002800810703D4204600F046FA03E020F0A3
:101D3000010084F82800002204A9286800F07CFE35
:101D4000002889D109B030BD5C0000202DE9FC419C
:101D50000F46054600F0C8FB01A800F067F80446EE
:101D6000019818B101F0A4F9BDE8FC81254EAFB18E
:101D700030690068D0B30027291B3A46306800F06C
:101D80009DFA01F095F90028EED11F494FF08050DF
:101D90000860BFF34F8FBFF36F8FE5E7A542EBD825
:101DA00001F086F9F0682746C068C468201D00F07D
:101DB00073F994F82800410719D5A0692B464119F9
:101DC0003A462046FFF71AFFA8B100200346014615
:101DD00000902A46204601F0FDF960B9502080F3BA
:101DE0001188BFF34F8FBFF36F8FFEE707E020F03E
:101DF000010084F82800216A20468847B4E70127BB
:101E0000BAE700005C00002004ED00E00648416BEA
:101E1000096829B1416BC968C9684968816270471E
:101E20004FF0FF31FAE700002000002070B50546B2
:101E300001F020F8064E0446B068844203D200F058
:101E400009F8012000E0002028602046B46070BD41
:101E50005C000020F8B5194D20E0C068C468066831
:101E6000201D00F019F9216A2046884794F82800BF
:101E7000400713D5A0693044B04206D924616060A0
:101E8000211DE86800F040F908E000200346014603
:101E900000903246204601F09DF938B1E8680168AB
:101EA0000029DAD12969C5E90310F8BD502080F373
:101EB0001188BFF34F8FBFF36F8FFEE75C000020E8
:101EC00008484068401C4FF0500080F3118804D04F
:101ED000BFF34F8FBFF36F8FFEE7BFF34F8FBFF39B
:101EE0006F8FFEE794000020074CE068016841B165
:101EF000C0680021D0F80000FFF728FFFFF7A8FE18
:101F0000F3E701210020F7E75C0000202DE9F04114
:101F1000044600F01DF994F9455004F1240609E047
:101F2000606A48B1304601F08BF808B100F016FA4B
:101F30006D1E6DB2002DF3DC4FF0FF3684F8456066
:101F400000F026F900F004F994F9445004F1100768
:101F500009E0206948B1384601F072F808B100F094
:101F6000FDF96D1E6DB2002DF3DC84F84460BDE810
:101F7000F04100F00DB900002DE9F04105460027C1
:101F800000F0B2FA324E306808B9FFF745FD7069CB
:101F900005424ED1C5B3083568070ED005F00700DD
:101FA000C0F108000544680707D0502080F311886D
:101FB000BFF34F8FBFF36F8FFEE72DB3706885427D
:101FC00037D82348183001460C6801E020460C46FB
:101FD0006168A94202D221680029F7D131688C4298
:101FE00027D007682168016060680837411B102905
:101FF0000FD96019420708D0502080F31188BFF331
:102000004F8FBFF36F8FFEE713E041606560FFF70E
:10201000CFFD61687068401A7060B268904200D26B
:10202000B060706901430020C4E90001F068401C01
:10203000F06001F03DF8780707D0502080F3118858
:10204000BFF34F8FBFF36F8FFEE73846BDE8F081D7
:10205000740000200449086818B10868026D521C19
:1020600002650868704700002000002010B5031FBB
:102070004FF080741C601B1F21F001011960191FB3
:10208000044B0B6014390A60091F6FF002024438D8
:102090000A6010BDC11E0008D0E9013201699A60D2
:1020A000D0E901235A604A68824201D182684A60BD
:1020B000002202610868401E08600868704700003E
:1020C000034B036003F15C000860802010607047E0
:1020D0004C070020044B036003F15C0008604FF4E0
:1020E0008070106070470000A809002000F108010E
:1020F0004FF0FF32C0E90112C160016100210160AF
:10210000704700210161704730B50B685A1C02D03E
:1021100000F1080202E0026904E0224654682568E2
:102120009D42FAD953684B6099608A60516008619A
:102130000168491C016030BD42684A6093688B6049
:1021400093685960916008610168491C016070479B
:10215000502080F31188BFF34F8FBFF36F8F0A4970
:102160004868401C486001280CD10848006810F0FD
:10217000FF0F07D0502080F31188BFF34F8FBFF3BC
:102180006F8FFEE7704700009400002004ED00E030
:102190000849486828B1401E486001D180F3118881
:1021A0007047502080F31188BFF34F8FBFF36F8FBC
:1021B000FEE700009400002070B500282AD0164DDC
:1021C000A0F1080460686969084207D1502080F3D3
:1021D0001188BFF34F8FBFF36F8FFEE722683AB1CC
:1021E000502080F31188BFF34F8FBFF36F8FFEE74E
:1021F0008843606000F078F9606869680844686046
:102200002046FFF7D5FC2869401C2861BDE87040D6
:1022100000F04EBF70BD0000740000204FF0E020C1
:1022200000210161816105494FF47A720968B1FBAF
:10223000F2F1491E41610721016170471C00002035
:1022400010B5FEF711F8114910280ED300F1E02067
:1022500090F8F0030A78904207D2502080F311885A
:10226000BFF34F8FBFF36F8FFEE70948006889689F
:1022700000F4E060884207D9502080F31188BFF352
:102280004F8FBFF36F8FFEE710BD0000940000205A
:102290000CED00E010B5084B002200BF53F83240AF
:1022A0001CB1521C082AF9D310BD43F8321003EBBD
:1022B000C201486010BD00003001002070B5154615
:1022C0000E460446FFF744FF94F944100020491CD1
:1022D00001D184F8440094F94510491C01D184F8D7
:1022E0004500FFF755FFA06B28B92A46314604F197
:1022F000240000F051F82046BDE87040FFF706BE0C
:1023000010B5020014D00F48006B38B1502080F394
:102310001188BFF34F8FBFF36F8FFEE700F0E4F833
:1023200000211046FFF752FA00F0C2FE002807D144
:1023300005494FF080500860BFF34F8FBFF36F8F98
:1023400010BD00002000002004ED00E002490A6AF0
:102350000260C968416070472000002001490120E7
:10236000C86170472000002010B50C4650B10949E3
:1023700009681831FFF7C8FE2046BDE8104001216A
:10238000FFF724BA502080F31188BFF34F8FBFF3BB
:102390006F8FFEE72000002070B514460D4668B12F
:1023A0000A4909681831FFF7C7FE0CB14FF0FF3535
:1023B00021462846BDE87040FFF708BA502080F358
:1023C0001188BFF34F8FBFF36F8FFEE7200000200F
:1023D00070B504003ED0226DA2B1E06C884200D3FB
:1023E0000146E06A884235D0012A33D11A4D2A6865
:1023F00094420FD1502080F31188BFF34F8FBFF369
:102400006F8FFEE7502080F31188BFF34F8FBFF32B
:102410006F8FFEE7E162A269002A02DBC1F1380199
:10242000A1610E4E00EB8000616906EB80008142E5
:1024300010D1201DFFF730FEE06A2969884200D9DB
:10244000286100EB800006EB8000211DBDE8704094
:10245000FFF772BE70BD0000200000207001002058
:1024600030B587B00024039405AA04A903A80494F6
:10247000FFF726FEDDE903010094CDE901100023FA
:1024800015A11748059A00F0B6FC164D0028E86221
:102490001FD000F06FFE012809D0401C19D1502038
:1024A00080F31188BFF34F8FBFF36F8FFEE750208B
:1024B00080F31188BFF34F8FBFF36F8F4FF0FF3062
:1024C000A86201206861EC6007B0BDE8304000F010
:1024D00045B807B030BD000049444C45000000003D
:1024E000651A0008200000200248016B491C0163A6
:1024F0007047000020000020164810B5016B11B194
:102500000121C16110BD0021C1610169124A01E0D0
:10251000B9B1491E01EB810352F82330002BF7D0EB
:1025200001EB810302EB830202F1080453685B684C
:102530005360A34201D15B685360DA6802600161B5
:1025400010BD502080F31188BFF34F8FBFF36F8F02
:10255000FEE7000020000020700100201CB5374875
:102560000168374A914207D1502080F31188BFF3A8
:102570004F8FBFF36F8FFEE700683149491E8842D5
:1025800007D1502080F31188BFF34F8FBFF36F8FB7
:10259000FEE72C4908780190FF20087008788DF834
:1025A00000009DF800009DF8002000F0F00090422F
:1025B00007D0502080F31188BFF34F8FBFF36F8F88
:1025C000FEE79DF80000204C00F05000207007202E
:1025D000A06005E09DF8002052008DF80020401E0C
:1025E0009DF800201206F5D4A060032807D05020E3
:1025F00080F31188BFF34F8FBFF36F8FFEE74FF467
:102600004070A060019808700C482030016841F4C7
:1026100070010160016841F070410160FFF7FEFD4B
:1026200000206060FDF7E8FD0848016841F0404186
:102630000160FDF7CDFD00201CBD000000ED00E0B5
:1026400071C20F4100E400E09400002034EF00E08C
:1026500010B5502080F31188BFF34F8FBFF36F8FF9
:1026600000F00EFC18B104494FF0805008600020C3
:1026700080F3118810BD000004ED00E010B50246A3
:102680000021012000F012F80446FFF71BFA204653
:1026900010BD38B50B46002200901146012000F015
:1026A00026F80446FFF70EFA204638BDF8B517465F
:1026B0000E46050013D005FB06F05030FFF75CFC1A
:1026C00004000AD0002084F8460004F150023B4682
:1026D000314628460094FFF701FA2046F8BD502005
:1026E00080F31188BFF34F8FBFF36F8FFEE738B5CC
:1026F000049D18B153B1CAB181B120E0502080F3DC
:102700001188BFF34F8FBFF36F8FFEE7502080F328
:102710001188BFF34F8FBFF36F8FFEE7502080F318
:102720001188BFF34F8FBFF36F8FFEE739B1502091
:1027300080F31188BFF34F8FBFF36F8FFEE75024F4
:102740001C46012384F846302B460094FFF7C6F957
:10275000204638BD70B50D46040025D0FFF7F8FCC3
:10276000D4E90F20216802FB0011A1600021A163C0
:10277000216861600A46D4E90F01401E00FB012177
:10278000E16021464FF0FF3001F8440F487004F13A
:1027900010008DB1FFF7AAFC04F12400FFF7A6FC9E
:1027A000FFF7F6FC012070BD502080F31188BFF3C5
:1027B0004F8FBFF36F8FFEE721690029F0D000F043
:1027C0003FFC0028ECD004494FF080500860BFF374
:1027D0004F8FBFF36F8FE3E704ED00E02DE9FF4774
:1027E00082B01D468A464FF00008040003D0BAF1BB
:1027F000000F08D011E0502080F31188BFF34F8FF5
:10280000BFF36F8FFEE7206C38B1502080F3118842
:10281000BFF34F8FBFF36F8FFEE7022D0AD1E06B3E
:10282000012807D0502080F31188BFF34F8FBFF3EA
:102830006F8FFEE700F010FB3F4F4FF000094FF0A5
:10284000805648B9049838B1502080F31188BFF3FE
:102850004F8FBFF36F8FFEE7FFF77AFCA06BE16B42
:10286000884207D3022D05D00498D0B1B8F1000FEB
:102870001AD01EE02A4651462046FFF77CF8616ACE
:1028800019B104F1240000F0DBFB20B13E60BFF37E
:102890004F8FBFF36F8FFFF77BFC012006B0BDE8C1
:1028A000F087FFF775FC22E06846FFF74FFD4FF019
:1028B0000108FFF76DFCFFF717FEFFF749FC94F9DD
:1028C0004400401C01D184F8449094F94500401C18
:1028D00001D184F84590FFF75BFC04A9684600F03D
:1028E00023FA30B12046FFF711FB00F0E1FB002096
:1028F000D4E7FFF72DFCA06BE16B884213D1FFF703
:1029000047FC04F110000499FFF72EFD2046FFF765
:10291000FDFA00F0CDFB00289ED13E60BFF34F8F43
:10292000BFF36F8F98E7FFF733FC2046FFF7EEFA0F
:1029300000F0BEFB90E7000004ED00E02DE9F04759
:102940001F4690468946040003D0B9F1000F08D015
:1029500011E0502080F31188BFF34F8FBFF36F8FCA
:10296000FEE7206C38B1502080F31188BFF34F8F01
:10297000BFF36F8FFEE7022F0AD1E06B012807D06B
:10298000502080F31188BFF34F8FBFF36F8FFEE7A6
:10299000FFF756FC5020EFF3118680F31188BFF348
:1029A0004F8FBFF36F8FA06BE16B884206D3022F6E
:1029B00004D0002086F31188BDE8F08794F94550D3
:1029C000A06B3A4649462046FEF7D5FF681C04D066
:1029D0006D1C84F845500120ECE7606A0028FAD0AD
:1029E00004F1240000F02CFB0028F4D0B8F1000F13
:1029F000F1D00121C8F80010EDE710B5040009D0AE
:102A000000F024FAA168884214D1E068401EE0601A
:102A100008D00DE0502080F31188BFF34F8FBFF333
:102A20006F8FFEE700231A4619462046FFF7D6FEB1
:102A3000012010BD002010BD2DE9F747002683B00E
:102A40008A46040003D0BAF1000F08D011E05020EC
:102A500080F31188BFF34F8FBFF36F8FFEE7206CB9
:102A600038B1502080F31188BFF34F8FBFF36F8FC1
:102A7000FEE700F0F1F9DFF8F4804FF000094FF0C5
:102A8000805748B9059838B1502080F31188BFF3BA
:102A90004F8FBFF36F8FFEE7FFF75AFBA56BC5B1F2
:102AA00051462046FEF754FF6D1EA563206950B1C4
:102AB00004F1100000F0C4FA28B1C8F80070BFF3A8
:102AC0004F8FBFF36F8FFFF763FB012006B0BDE8A8
:102AD000F087059808B11EB106E0FFF759FB27E023
:102AE0006846FFF733FC0126FFF752FBFFF7FCFCBB
:102AF000FFF72EFB94F94400401C01D184F8449068
:102B000094F94500401C01D184F84590FFF740FB43
:102B100005A9684600F008F9002820460AD0FFF70A
:102B2000F5F900F0C5FA2046FFF784F80028B3D085
:102B30000020CBE7FFF77EF890B104F1240005995F
:102B4000FFF712FC2046FFF7E1F900F0B1FA002888
:102B5000A2D1C8F80070BFF34F8FBFF36F8F9BE710
:102B60002046FFF7D3F900F0A3FA95E704ED00E063
:102B70002DE9F343002683B00400354609D0206CCC
:102B800078B1502080F31188BFF34F8FBFF36F8F60
:102B9000FEE7502080F31188BFF34F8FBFF36F8F94
:102BA000FEE700F059F9DFF83C814FF000094FF0E3
:102BB000805748B9049838B1502080F31188BFF38A
:102BC0004F8FBFF36F8FFEE7FFF7C2FAA06BC8B15C
:102BD000401EA063206810B9FFF73CFAA06020698E
:102BE00050B104F1100000F02BFA28B1C8F80070C1
:102BF000BFF34F8FBFF36F8FFFF7CAFA012005B005
:102C0000BDE8F083049808B166B10FE03DB15020F3
:102C100080F31188BFF34F8FBFF36F8FFEE7FFF78D
:102C2000B7FA5DE06846FFF791FB0126FFF7B0FABF
:102C3000FFF75AFCFFF78CFA94F94400401C01D1CD
:102C400084F8449094F94500401C01D184F84590E3
:102C5000FFF79EFA04A9684600F066F800282046AF
:102C600012D0FFF753F900F023FA2046FEF7E2FFF7
:102C70000028A9D09DB3FFF76BFA606A50B3206BB0
:102C80000068C0F1380126E0FEF7D4FFE0B120680B
:102C900038B9FFF75DFAA06800F096F90546FFF72E
:102CA00077FA04F124000499FFF75EFB2046FFF752
:102CB0002DF900F0FDF9002886D1C8F80070BFF3A7
:102CC0004F8FBFF36F8F7FE72046FFF71FF900F0AC
:102CD000EFF979E70021A068FFF77AFB9FE7FFE7AC
:102CE00000208CE704ED00E070B50D46040009D02B
:102CF00000F0ACF8A16888420CD1E068401CE060AC
:102D0000012070BD502080F31188BFF34F8FBFF3B7
:102D10006F8FFEE729462046FFF72AFF0028F0D0F4
:102D2000E168491CE16070BD2DE9F0410C460500E9
:102D300011D0C4B1FFF70CFA174BDA686E6820683F
:102D4000911B471C17D02F681B6A9F4219D09642CF
:102D500017D8012410E0502080F31188BFF34F8F63
:102D6000BFF36F8FFEE7502080F31188BFF34F8FC2
:102D7000BFF36F8FFEE70024FFF70AFA2046BDE895
:102D8000F081884205D9401A20602846FFF7DEFA14
:102D9000F1E700202060DCE7200000202DE9FF5F44
:102DA0008346DDE90E87994616468A469000FFF76E
:102DB000E3F805001CD05C20FFF7DEF8040014D017
:102DC0000020256384F85900CDE90240CDE9008751
:102DD0004B46324651465846FEF792FE2046FEF7D5
:102DE00023FD012004B0BDE8F09F2846FFF7E4F979
:102DF0004FF0FF30F6E7F0B585B0DDE90B640A9DD2
:102E0000A6B1DCB15C2700972663022684F85960DE
:102E1000002604AFCDE90246CDE90057FEF770FE6B
:102E20002046FEF701FD049805B0F0BD502080F368
:102E30001188BFF34F8FBFF36F8FFEE7502080F3F1
:102E40001188BFF34F8FBFF36F8FFEE70148006813
:102E500070470000200000200548416919B1006B4F
:102E600018B1002070470120704702207047000011
:102E7000200000200148C0687047000020000020AA
:102E80002DE9F0412E4C0027206B28B1A069401C91
:102E9000A0613846BDE8F081E668761CE66013D193
:102EA000606B006838B1502080F31188BFF34F8FFA
:102EB000BFF36F8FFEE7606BA16B6163A063206A55
:102EC000401C2062FEF7A2FFA06ADFF878808642ED
:102ED00009D3606B0068A0B1606BC068C5686868A2
:102EE000864211D2A0622068C06A00EB800158F8C7
:102EF0002100012800D90127E0690028C9D0012755
:102F0000C7E74FF0FF30EDE7281DFFF7C5F8A86AC7
:102F100018B105F11800FFF7BFF8E86A2169884287
:102F200000D9206100EB800108EB8100291DFFF72B
:102F300003F9E86A2168C96A8842CAD30127C8E749
:102F4000200000207001002070B504004FF0000147
:102F500033D01B4D2868844207D0502080F311885D
:102F6000BFF34F8FBFF36F8FFEE7206D38B1401E68
:102F70002065E36CE26A9A421FD040B11DE0502008
:102F800080F31188BFF34F8FBFF36F8FFEE7201DD3
:102F9000FFF782F8E06CE062C0F13800A061E06AFF
:102FA0002969884200D92861064900EB800001EBBD
:102FB0008000211DFFF7C0F80121084670BD000008
:102FC000200000207001002070B504004FF00000C8
:102FD0002BD0194DE16A2A68D26A914226D2A069A3
:102FE000002804DB2868C06AC0F13800A061134ED5
:102FF00001EB8101606906EB8101884211D1201D3E
:10300000FFF74AF82868C06AE0622969884200D957
:10301000286100EB800006EB8000211DFFF78CF893
:1030200002E02868C06AE062012070BDE16C2A6895
:10303000D26A9142F8D370BD2000002070010020B8
:1030400070B5C068C46854B104F118000646FFF7B3
:1030500023F8144D286B50B13146134815E0502029
:1030600080F31188BFF34F8FBFF36F8FFEE7201DF2
:10307000FFF712F8E06A2969884200D928610B49F4
:1030800000EB800001EB8000211DFFF755F8E06A9E
:103090002968C96A884202D90120E86170BD002010
:1030A00070BD000020000020F80500207001002005
:1030B0002DE9F0472C4D00242746286B38B1FFF747
:1030C00047F8286B401E2863286B40B146E050202B
:1030D00080F31188BFF34F8FBFF36F8FFEE7A968AE
:1030E000224E0120D1B3A6F5916980463068E0B147
:1030F000F068C46804F11800FEF7CEFF201DFEF74B
:10310000CBFFE06A2969884200D9286100EB800181
:1031100009EB8100211DFFF70FF8E06A2968C96AF1
:103120008842E3D3C5F81C80E0E70CB1FEF76EFEE1
:10313000AC694CB14FEA0806FFF7A2FE00B1EE61A0
:10314000641EF9D10020A861E86938B10849012757
:1031500038070860BFF34F8FBFF36F8FFFF718F882
:103160003846BDE8F087000020000020F805002068
:1031700004ED00E010B586B0FEF7BEFB114C2068F0
:10318000B8B100200390049005AA04A903A8FEF793
:10319000A1FFDDE9032102208DE8070000230AA139
:1031A0000B48059AFFF727FE606010B106B00120BA
:1031B00010BD502080F31188BFF34F8FBFF36F8F86
:1031C000FEE700005C000020546D7220537663001F
:1031D000E91E00082DE9FF411E46134602000A9D24
:1031E0004FF0000016D0144C2768002F0FD0CDE907
:1031F00000130292062917DAFFF72EFE02284FF07D
:1032000000030FD0002269462068FFF7E7FA04B0F8
:10321000BDE8F081502080F31188BFF34F8FBFF3DA
:103220006F8FFEE72A46EEE70023324669463846AE
:10323000FFF784FBEBE700005C000020E8320008A9
:10324000000000000000000000000000000000007E
:103250000002000018000000000000000000000054
:10326000D032000800000000000000000000000054
:103270000000000000020000080000000000000044
:1032800000000000DC320008000000000000000028
:103290000000000000000000000200000800000024
:1032A0000000000000000000F432000800000000F0
:1032B000000000000000000000000000000000000E
:1032C00001020304060708090000000001020304CC
:1032D0006D795461736B3032000000006D79546178
:1032E000736B30330000000064656661756C745464
:1032F00061736B004D757465780000001C33000825
:1033000000000020A400000058150008C033000889
:10331000A4000020644D00006815000800000000B3
:10332000000000000000000000000000010000009C
:1033300010000000000000000024F4000000000065
:10334000000000000000000000000000000000007D
:10335000000000000000000000000000000000006D
:10336000000000000000000000000000000000005D
:10337000000000000000000000000000000000004D
:10338000000000000000000000000000000000003D
:10339000000000000000000000000000000000002D
:1033A000000000000000000000000000000000001D
:1033B00000000000AAAAAAAA000000000000000065
:040000050800019955
:00000001FF
